:020000040800F2
:10000000000400204B010008C1030008C3030008DE
:10001000C7030008CB030008CF030008000000005E
:10002000000000000000000000000000D3030008F2
:10003000D503000800000000D7030008D90300081A
:100040006B0100086B0100086B0100086B010008E0
:100050006B0100086B010008E10300086B01000858
:100060006B0100086B0100086B0100086B010008C0
:100070006B0100086B0100086B0100086B010008B0
:100080006B0100086B0100086B0100086B010008A0
:100090006B0100086B0100086B0100086B01000890
:1000A0006B0100086B0100086B0100086B01000880
:1000B000332D00085B2D00086B0100086B01000860
:1000C0006B0100086B0100086B0100086B01000860
:1000D0006B0100088D040008B52800086B2B000890
:1000E0006B0100086B0100086B0100086B01000840
:1000F0006B0100086B0100086B0100086B01000830
:100100006B0100086B0100086B0100086B0100081F
:100110006B0100086B0100086B0100086B0100080F
:100120006B0100086B0100086B0100086B010008FF
:10013000DFF810D004F08EFF004800477901000876
:10014000AFF30080B0080020704708488047084996
:1001500081F3088807480047FEE7FEE7FEE7FEE771
:10016000FEE7FEE7FEE7FEE7FEE7FEE749010008DF
:10017000B0080020310100080124002502F0E3F856
:1001800002F062F94FF4A06000F018FA01210807AC
:1001900000F0ABFD4FF4E13000F02CF94FF41650B5
:1001A00002F006FA02F0EAFE03F086FB04F00DF816
:1001B00002F04CFF02F059FD40F2CF21312002F055
:1001C0008CFD03F09DF804F066F8012001F0D2FFE9
:1001D000012805D102F02EFD55A004F08FFF02E0AA
:1001E00058A004F08BFFB42002F06BF903F0D6FBAB
:1001F0005A4800785A49087099E005E003F0CEFBB0
:10020000204603F067FD0446564800780028F5D0E4
:100210005448007801285ED1514800784F49096858
:10022000884216D100204E49087003F08DF84E49DF
:1002300008604E4801684C48006804F0EFFC04D2A6
:1002400020214B4800F035FB03E02021484800F016
:1002500032FB02F089FA04F075F90546012D06D04B
:10026000022D10D0032D1BD0042D32D125E001200A
:10027000404908704049087004204049087040A077
:1002800004F03CFF26E001203A49087002203A4978
:10029000087004203D4908703DA004F02FFF19E0CC
:1002A00001203449087003203349087004203B4979
:1002B00008703BA004F022FF0CE001202D490870DB
:1002C00004202D4908703949087039A004F016FF40
:1002D00000E000BF00BF23480078012803D0214878
:1002E0000078022803D1204603F071FD0446402126
:1002F0001F4803F07DFFD0B9022020490870234930
:10030000087026490870294908702021184800F013
:10031000D2FA03F01EF90021284801F071FB0020F9
:10032000104908701349087013490870012464E7E4
:100330000D0A20B4FDBBFABBBDD0D1B8B4CEBB20F2
:100340000D0A00000D0A20B7C7B4FDBBFABBBDD033
:10035000D1B8B4CEBB200D0A00000000640000201C
:10036000160000201A0000201C0000206C00002055
:100370000008014060000020180000205C00002000
:10038000BFC9BBD8CAD5C0ACBBF80A005D0000200D
:10039000D3D0BAA6C0ACBBF80A0000005E000020B3
:1003A000B3F8D3E0C0ACBBF80A0000005F00002047
:1003B000C6E4CBFCC0ACBBF80A000000000400405F
:1003C000704700BFFEE700BFFEE700BFFEE700BFCB
:1003D000FEE770477047704710B502F0D7F810BDC0
:1003E00010B5012001F05EFE10B1012001F06BFE9E
:1003F00010BD000010B586B00446012144F204008F
:1004000000F066FC4FF40070ADF8140003208DF886
:10041000160018208DF8170005A9644800F09CF913
:100420004FF48060ADF8140004208DF8170005A982
:100430005E4800F091F925208DF8000003208DF82A
:1004400001008DF8020001208DF80300684600F0DD
:10045000BAF801940020ADF80800ADF80A00ADF834
:100460000C00ADF810000C20ADF80E0001A95048AA
:1004700000F0D5FC012240F225514D4800F067FD07
:1004800001214B4800F057FD06B010BD10B540F2F9
:100490002551474800F040FE10B3454800F0BCFD30
:1004A000C4B24448008800F40040C8B941480088FC
:1004B00000F4804060B10A2C03D000203D49088040
:1004C00020E03C48008840F400403A49088019E0A8
:1004D0000D2C06D13748008840F48040354908800B
:1004E00010E034480088C0F30D0033490C54314803
:1004F0000088401C2F49088008460088C72801DD75
:100500000020088010BD70B505460E46002400BFCF
:100510000CE0295D264800F07BFD00BF4021244807
:1005200000F0E4FD0128F9D1601C84B2B442F0DB94
:1005300070BD70B504460D46E1B21D4800F068FD7F
:1005400000BF1B48008800F080000028F9D020463A
:1005500070BD10B504462146154800F059FD00BF96
:100560008021134800F0C2FD0028F9D010BD10B55D
:10057000044620210E4800F0B9FD08B9002010BD46
:100580000B4800F049FD20700120F8E708B5002075
:1005900000900AE004E09DF80010054800F038FDE6
:1005A0006846FFF7E4FF0028F5D1F3E700080140B3
:1005B0000038014020000020E805002031490143B7
:1005C000314A1160704770B5002100230F22C478B2
:1005D00004B32D4C246804F4E064C4F5E064210AFB
:1005E000C1F10403CA40447804FA03F1847814404A
:1005F00021430901254C0678A155047804F01F0514
:100600000124AC4005786D11AD0005F1E025C5F879
:10061000004109E0047804F01F050124AC401C4DA2
:100620000678761145F8264070BD1A4A0A40024302
:10063000154B1B1F1A60704739B1134A121D1268FF
:100640000243114B1B1D1A6006E00F4A121D12686F
:1006500082430D4B1B1D1A607047042808D14FF0D0
:10066000E021096941F004014FF0E022116107E047
:100670004FF0E021096921F004014FF0E0221161FF
:10068000704700000000FA050CED00E000E400E017
:1006900080E100E080FFFF1F10B50446CC48844293
:1006A00008D10121042000F02DFB0021042000F0DE
:1006B00029FB46E0C748844208D10121082000F008
:1006C00021FB0021082000F01DFB3AE0C2488442D3
:1006D00008D10121102000F015FB0021102000F0AE
:1006E00011FB2EE0BD48844208D10121202000F0FA
:1006F00009FB0021202000F005FB22E0B8488442DD
:1007000008D10121402000F0FDFA0021402000F036
:10071000F9FA16E0B348844208D10121802000F0A4
:10072000F1FA0021802000F0EDFA0AE0AE488442A0
:1007300007D10121801500F0E5FA0021A01500F095
:10074000E1FA10BD10B50121084600F0DBFA0021E6
:10075000012000F0D7FA10BD2DE9F0410246002536
:100760000026002000230024002791F803C00CF08D
:100770000F0591F803C00CF0100CBCF1000F03D072
:1007800091F802C04CEA050591F800C0BCF1000FD9
:1007900031D0146800202BE04FF0010C0CFA00F36C
:1007A000B1F800C00CEA03069E4220D183004FF04E
:1007B0000F0C0CFA03F7BC4305FA03FC4CEA0404E3
:1007C00091F803C0BCF1280F06D14FF0010C0CFAD0
:1007D00000FCC2F814C00AE091F803C0BCF1480F55
:1007E00005D14FF0010C0CFA00FCC2F810C0401CFF
:1007F0000828D1D31460B1F800C0BCF1FF0F34DD7C
:10080000546800202EE000F1080C4FF0010808FAAF
:100810000CF3B1F800C00CEA03069E4221D183001C
:100820004FF00F0C0CFA03F7BC4305FA03FC4CEA3B
:10083000040491F803C0BCF1280F05D100F1080CA5
:1008400008FA0CF8C2F8148091F803C0BCF1480F04
:1008500007D100F1080C4FF0010808FA0CF8C2F8B3
:100860001080401C0828CED35460BDE8F0814FF6BC
:10087000FF710180022181700421C170704702461E
:10088000002093680B400BB1012000E0002070476E
:100890000146886880B2704702460020D3680B404A
:1008A0000BB1012000E0002070470146C86880B20B
:1008B000704701617047416170470AB1016100E012
:1008C00041617047C16070474FF480320A438261D2
:1008D0008161826182698269704702460020434BD0
:1008E00018684FF68073184040EA021008433F4BE7
:1008F000186070473E49C8617047F0B50A4600234A
:1009000000240021002500F00046B6F1004F02D17E
:10091000364EF16901E0354E7168C0F3034583B28C
:1009200000F44016B6F5401F08D121F070612F4E3B
:10093000766826F070662D4F7E6012E000F4801617
:10094000B6F5801F06D1032606FA05F4A14341F04F
:10095000706106E0460D360103FA06F6B14341F038
:10096000706122B1460D360103FA06F6314300F0FC
:100970000046B6F1004F02D11C4EF16101E01B4E62
:100980007160F0BD30B500228B071C0F0F2303FAF6
:1009900004F2164B08338C1053F824309343134C55
:1009A00008348D1044F8253023468C1053F8243039
:1009B0008C07240F00FA04F423430C4C08348D10E8
:1009C00044F8253030BD0A49DC310860704700002A
:1009D00000080140000C01400010014000140140DB
:1009E00000180140001C01400020014000000140AF
:1009F00000002042DF48006840F00100DD49086047
:100A000008464068DC490840DA4948600846006802
:100A1000DA490840D74908600846006820F4802079
:100A200008600846406820F4FE0048604FF41F004C
:100A300088607047CF49096821F48031CD4A116040
:100A40001146096821F480211160B0F5803F03D080
:100A5000B0F5802F0ED106E0C649096841F4803117
:100A6000C44A116007E0C349096841F4A021C14AA2
:100A7000116000E000BF00BF704710B501460022C2
:100A8000002300204A11012A02D1BA4C236806E053
:100A9000022A02D1B74C236A01E0B64C636A01F026
:100AA0001F02012494401C400CB1012000E00020F2
:100AB00010BD38B5002000900024002500BF312073
:100AC000FFF7DBFF05460098401C00900098B0F54A
:100AD000A06F01D0002DF2D03120FFF7CEFF08B17A
:100AE000012400E00024204638BD01460020A14A30
:100AF000106820F0F80040EAC10010607047A0497B
:100B000008607047024600209A4B586820F47C1019
:100B100042EA01031843974B5860704798490866AA
:100B2000704701460020934A506820F003000843B4
:100B3000506070478F48406800F00C0070470146D5
:100B400000208C4A506820F0F00008435060704745
:100B500001460020874A506820F4E0600843506056
:100B6000704701460020834A506820F4605040EAF4
:100B7000C1005060704729B17E4A527A02437D4BD2
:100B80005A7204E07B4A527A82437A4B5A72704717
:100B90007B49D8310860704701460020754A50688B
:100BA00020F440400843506070470021714A2032D1
:100BB0001170704A82F82010012802D004280AD14E
:100BC00004E001216B4A2032117005E00521694AD9
:100BD0002032117000E000BF00BF70476949086013
:100BE00070476449096A0143624A11627047654966
:100BF00044390860704730B50021002200240023EA
:100C00005C4D6D6805F00C0121B1042905D008295F
:100C100023D105E05C4D056022E05B4D05601FE0DF
:100C2000544D6D6805F47012524D6D6805F48034B2
:100C3000022505EB92421CB9544D554305600BE06B
:100C40004C4D6D6805F400351DB1504D55430560A0
:100C500002E04D4D5543056002E04B4D056000BF7D
:100C600000BF444D6D6805F0F0010909484D6B5C0B
:100C70000568DD4045603F4D6D6805F4E061090A97
:100C8000434D6B5C4568DD4085603A4D6D6805F409
:100C90006051C90A3E4D6B5C4568DD40C560354D0D
:100CA0006D6805F44041890B3A4D6B5CC568B5FB36
:100CB000F3F5056130BD29B12E4A526902432D4B2F
:100CC0005A6104E02B4A526982432A4B5A617047A9
:100CD00029B1284A92690243264B9A6104E0254AC9
:100CE00092698243234B9A61704729B1214AD269A4
:100CF0000243204BDA6104E01E4AD26982431D4B55
:100D0000DA61704729B11B4AD2680243194BDA6095
:100D100004E0184AD2688243164BDA60704729B162
:100D2000144A12690243134B1A6104E0114A126912
:100D30008243104B1A61704712494039086070476E
:100D40000F49C86470470B49C87170470948406A29
:100D500040F0807007494862704701460020054A0C
:100D600092680A400AB1012000E000207047014962
:100D700088727047001002400000FFF8FFFFF6FE87
:100D8000000042428004424200127A0000093D0005
:100D9000220000203200002010B50446FB488442A7
:100DA00009D101218803FFF7ADFF00214FF48040F6
:100DB000FFF7A8FF32E0F648844209D10121480438
:100DC000FFF7ADFF00214FF40030FFF7A8FF25E04B
:100DD000F048844209D101218804FFF7A0FF0021D7
:100DE0004FF48020FFF79BFF18E0EB48844209D1C5
:100DF0000121C804FFF793FF00214FF40020FFF703
:100E00008EFF0BE0E548844208D101210805FFF779
:100E100086FF00214FF48010FFF781FF10BD2DE900
:100E2000F04786B005460E460024A24600BFA14604
:100E30000027B08900B100BF2F462C8A4CF6FF7006
:100E40000440F08804432C82AC894EF6F310044031
:100E5000B08831890843718908430443AC81AC8A66
:100E60004FF6FF400440B0890443AC8201A8FFF76D
:100E7000C2FEC648874202D1DDF810A001E0DDF8CD
:100E80000CA0A88900F4004040B10AEBCA0000EBB6
:100E90000A1031684900B0FBF1F807E00AEBCA001C
:100EA00000EB0A1031688900B0FBF1F86420B8FB50
:100EB000F0F004012009642101FB1089A88900F4E5
:100EC000004040B1322000EBC900B0FBF1F000F06F
:100ED0000700044308E0322000EB09106421B0FB56
:100EE000F1F000F00F0004432C8106B0BDE8F0875C
:100EF0004FF41651016000218180C18001810C21D5
:100F0000418100218181704710B502460020108A7E
:100F10004FF2FF0318400B884C8823438C882343EF
:100F2000CC8823431843108210BD002101804180EA
:100F30008180C180704721B1828942F40052828150
:100F400004E082894DF6FF731A4082817047F0B544
:100F50000346002400260025002040F66A17B94207
:100F600000D100BF1846C1F3421401F01F0601274B
:100F700007FA06F5012C01D10C3004E0022C01D156
:100F8000103000E014301AB107682F43076002E008
:100F90000768AF430760F0BD1AB1838A0B438382B1
:100FA00002E0838A8B4383827047028A4FF6F07394
:100FB0001A400282028A0A430282704782894FF2F3
:100FC000FF731A40828182890A438281704721B16E
:100FD000828942F00202828104E082894FF6FD7329
:100FE0001A4082817047028A4FF6DF731A400282EC
:100FF000028A0A430282704721B1028A42F4804287
:10100000028204E0028A4BF6FF731A4002827047A4
:10101000C1F308028280704701468888C0F3080047
:101020007047818941F0010181817047028BD2B202
:101030000283028B42EA012202837047028B02F490
:101040007F420283028B0A430283704721B1828A66
:1010500042F02002828204E0828A4FF6DF731A4057
:101060008282704721B1828A42F01002828204E0BB
:10107000828A4FF6EF731A408282704721B1828ACA
:1010800042F00802828204E0828A4FF6F7731A4027
:101090008282704721B1828942F40042828103E05A
:1010A0008289C2F30E028281704721B1828A42F4A2
:1010B0000062828204E0828A4FF2FF731A408282C9
:1010C0007047828A4FF6FB731A408282828A0A43F3
:1010D0008282704721B1828A42F00202828204E059
:1010E000828A4FF6FD731A408282704702460020C2
:1010F000B1F5007F00D100BF13880B400BB1012078
:1011000000E00020704701F40072B2F5007F00D1CA
:1011100000BFCA430280704770B502460024002316
:101120000025002040F66A16B14200D100BFC1F38D
:10113000421501F01F03012606FA03F3012D02D127
:101140009689334006E0022D02D1168A334001E031
:10115000968A33400C12012606FA04F416883440AD
:1011600013B10CB1012000E0002070BD10B50022C9
:10117000002340F66A14A14200D100BF0A120124E4
:101180009440A3B2DC43048010BD0000003801404D
:101190000044004000480040004C00400050004027
:1011A00010B50446FE48844208D10121C014FFF75F
:1011B000A9FD0021E014FFF7A5FDC4E0B4F1804FC4
:1011C00008D101210846FFF7AAFD00210120FFF701
:1011D000A6FDB8E0F348844208D101210220FFF7C0
:1011E0009EFD00210220FFF79AFDACE0EE4884420C
:1011F00008D101210420FFF792FD00210420FFF710
:101200008EFDA0E0E948844208D101210820FFF7C3
:1012100086FD00210820FFF782FD94E0E448844227
:1012200008D101211020FFF77AFD00211020FFF7DF
:1012300076FD88E0DF48844208D101212020FFF7B5
:101240006EFD00212020FFF76AFD7CE0DA48844231
:1012500008D101214014FFF755FD00216014FFF76C
:1012600051FD70E0D548844209D10121C804FFF73F
:1012700049FD00214FF40020FFF744FD63E0D04812
:10128000844209D101210805FFF73CFD00214FF4FC
:101290008010FFF737FD56E0CA48844209D101218A
:1012A0004805FFF72FFD00214FF40010FFF72AFD3E
:1012B00049E0C548844208D101214020FFF72FFDB5
:1012C00000214020FFF72BFD3DE0C048844208D1BB
:1012D00001218020FFF723FD00218020FFF71FFD63
:1012E00031E0BB48844208D101218015FFF717FD8A
:1012F0000021A015FFF713FD25E0B648844209D16F
:1013000001210804FFF7FEFC00214FF48030FFF7B5
:10131000F9FC18E0B048844209D101214804FFF7E4
:10132000F1FC00214FF40030FFF7ECFC0BE0AB4880
:10133000844208D101218804FFF7E4FC00214FF426
:101340008020FFF7DFFC10BD00220288944B9842FA
:101350000ED0994B98420BD0B0F1804F08D0914BF2
:10136000984205D0904B984202D0904B984204D1BD
:101370004FF68F731A404B881A438D4B984207D013
:101380008C4B984204D04FF6FF431A40CB881A4347
:1013900002808B8883850B880385814B98420BD014
:1013A000854B984208D08B4B984205D08A4B984287
:1013B00002D08A4B984201D10B7A038601238382A3
:1013C000704770B5002400220023058C4FF6FE768E
:1013D00035400584028C8388048B4FF68F752C4032
:1013E000B51E2C400D882C43751E2A400D892A43BA
:1013F0004D882A436A4DA8420BD06F4DA84208D0B1
:10140000744DA84205D0744DA84202D0734DA84235
:1014100013D14FF6F7752A404D892A434FF6FB75D5
:101420002A408D882A434FF6FF652B404FF6FF5523
:101430002B408D892B43CD892B4383800483CD881A
:101440008586028470BD70B5002400220023058CBF
:101450004FF6EF7635400584028C8388048B48F67E
:10146000FF752C404FF6FF452C400D884FF6FF7658
:1014700006EA05252C434FF6DF752A400D8906EA5A
:1014800005152A434D8806EA05152A43444DA8420E
:1014900002D0494DA8421DD14FF67F752A404D8993
:1014A0004FF6FF7606EA05152A434FF6BF752A4028
:1014B0008D8806EA05152A434FF6FF352B404FF27B
:1014C000FF752B408D8906EA85052B43CD8906EAF9
:1014D00085052B4383800483CD880587028470BDF6
:1014E00070B5002400220023058C4FF6FF663540BE
:1014F0000584028C8388848B4FF68F752C404FF6C1
:10150000FC752C400D882C434FF6FF552A400D8961
:101510004FF6FF7606EA05252A434D8806EA05259B
:101520002A431F4DA84202D0234DA8421DD14FF29D
:10153000FF752A404D894FF6FF7606EA05252A43B6
:101540004FF6FF352A408D8806EA05252A434EF6D8
:10155000FF752B404DF6FF752B408D8906EA05156A
:101560002B43CD8906EA05152B4383808483CD88E0
:101570008587028470BD70B5002200230024058C8D
:101580004EF6FF7635400584038C8488828B48F6BE
:10159000FF752A404FF6FF452A400D8820E00000E5
:1015A000002C01400004004000080040000C0040F6
:1015B000001000400014004000340140004C014085
:1015C000005001400054014000180040001C004041
:1015D000002000400040014000440140004801401C
:1015E0004FF6FF7606EA05252A434DF6FF752B4098
:1015F0000D8906EA05352B434D8806EA05352B4350
:10160000FA4DA84202D0FA4DA84208D14BF6FF7518
:101610002C408D894FF6FF7606EA85152C43848091
:101620008283CD88A0F84050038470BD828B4FF236
:10163000FF331A408283828B4FF6FF7303EA012344
:101640001A4382837047F0B50C46154600220021EC
:101650000026078C4EF6FF7C07EA0C070784828B76
:10166000018C4FF6FF7707EA043640F6FF473A4011
:101670004FF6FF7707EA05273A434FF6FF7707EA69
:1016800003373A43D94FB8420ED0D94FB8420BD0A6
:10169000B0F1804F08D0D74FB84205D0D64FB842EE
:1016A00002D0D64FB84206D14DF6FF77394046F406
:1016B0008057394305E047F6FF57394044F48057D7
:1016C000394382830184F0BD828B4FF6F3731A4055
:1016D0008283828B0A4382837047F0B50C4615469D
:1016E000002200210026078C4FF6FF6C07EA0C074A
:1016F0000784828B018C4FF6FF7707EA04264FF6AA
:101700000C773A404FF6FF7707EA03172F433A4327
:10171000B64FB8420ED0B64FB8420BD0B0F1804FA2
:1017200008D0B44FB84205D0B34FB84202D0B34F3F
:10173000B84206D14FF6FF57394046F48077394317
:1017400005E04FF2FF57394044F4807739438283F4
:101750000184F0BD028B4FF2FF331A400283028BEB
:101760004FF6FF7303EA01231A4302837047F0B573
:101770000C461546002200210026078C4FF6EF7C10
:1017800007EA0C070784028B018C4FF6FF7707EA04
:10179000041640F6FF473A404FF6FF7707EA033753
:1017A0003A434FF6FF7707EA05273A438F4FB8428F
:1017B0000ED08F4FB8420BD0B0F1804F08D08D4F74
:1017C000B84205D08C4FB84202D08C4FB84206D1F7
:1017D0004FF6DF77394046F01007394305E04FF602
:1017E0005F77394044F01007394302830184F0BD2C
:1017F000028B4FF6F3731A400283028B0A43028373
:101800007047F0B50C46154600220021068C4FF6B5
:10181000FE773E400684028B018C4FF60C763240F8
:101820007E1C06EA03162E433243704EB0420ED0A1
:101830006F4EB0420BD0B0F1804F08D06D4EB04229
:1018400005D06D4EB04202D06C4EB04206D14FF67C
:10185000FD76314044F00106314305E04FF6F57660
:10186000314044F00106314302830184F0BD70B57C
:1018700005460C465D4885420ED05D4885420BD03A
:10188000B5F1804F08D05B48854205D05A48854263
:1018900002D05A48854200D100E000BF208850B9EC
:1018A0002389A28861882846FFF7ABFFE188284694
:1018B000FFF79EFF25E0208804280AD12389A2880B
:1018C00061882846FFF753FFE1882846FFF742FF6B
:1018D00017E0208808280AD12389A2886188284631
:1018E000FFF7FBFEE1882846FFF7EEFE09E02389BB
:1018F000A28861882846FFF7A6FEE1882846FFF700
:1019000095FE70BD2DE9F04105460C4600260127E5
:10191000608808B9022600E00026A088012801D1CD
:10192000022700E001272088A0B92389A2886188C6
:101930002846FFF766FFE1882846FFF759FF23890D
:101940003A4631462846FFF712FFE1882846FFF75E
:1019500001FF13E02389A28861882846FFF707FF6B
:10196000E1882846FFF7F6FE23893A4631462846A5
:10197000FFF747FFE1882846FFF73AFFBDE8F0810F
:101980000A884B881A438B881A43CB881A430B89E1
:101990001A434B891A438B891A43A0F84420704795
:1019A0004FF6FF71818000210180C180418001726A
:1019B00070470021018041808180C1800181418187
:1019C0008181C18170470021018041800121818096
:1019D0000021C18001817047002101804180818008
:1019E000C18001814181818170470000002C01404C
:1019F000003401400004004000080040000C00409A
:101A000021B1028842F00102028004E002884FF610
:101A1000FE731A400280704731B1B0F8442042F49E
:101A20000042A0F8442005E0B0F84420C2F30E02C2
:101A3000A0F8442070471AB183890B43838102E0E8
:101A400083898B43838170478182704741EA020317
:101A5000A0F8483070471AB183890B43838102E0B4
:101A600083898B438381704701894FF6F872114057
:101A7000018170470A46002101894FF68F73194092
:101A800011430181704730B504460D462946204672
:101A9000FFF7F0FF208940F00700208130BD2DE9DD
:101AA000F04104460D4616461F46602D06D13B46C2
:101AB000012231462046FFF75AFE05E03B4601224F
:101AC00031462046FFF79DFE29462046FFF7D2FF0C
:101AD000208940F007002081BDE8F08130B50C4638
:101AE00000210189C9B24FF6FF7505EA03251543A8
:101AF00025432943018130BD2DE9F04105460E46BD
:101B000017469846002443463A4631462846FFF792
:101B1000E5FF2C894FF6F870044044F007044FF6B7
:101B20008F70044044F070042C81BDE8F081F0B562
:101B300004460D4616461F463B4632462946204679
:101B4000FFF7CCFF208940F480402081F0BD018563
:101B5000828270470A46002101884FF68F73194030
:101B6000114301807047F0B50C4615461E46002112
:101B7000002200230189028B038C4FF6F87739404D
:101B800021434FF6FC473A4040F201173A434FF6E3
:101B9000DD773B404FF6FF7707EA06172F433B43BD
:101BA000018102830384F0BD0A460021018B4FF6B8
:101BB0008F7319401143018370470A460021018B3E
:101BC00048F6FF7319404FF6FF7303EA02231943E7
:101BD000018370470A460021818B4FF68F731940AD
:101BE0001143818370470A460021818B48F6FF73B9
:101BF00019404FF6FF7303EA0223194381837047AC
:101C000021B1028842F08002028004E002884FF68F
:101C10007F731A400280704721B1828842F004022B
:101C2000828004E082884FF6FB731A4082807047FE
:101C300021B1828842F00802828004E082884FF657
:101C4000F7731A408280704721B1828842F0010206
:101C5000828004E082884FF6FE731A4082807047CB
:101C60000A460021018B4FF6F77319401143018397
:101C700070470A460021018B4FF2FF7319404FF65F
:101C8000FF7303EA02231943018370470A460021C8
:101C9000818B4FF6F77319401143818370470A46D1
:101CA0000021818B4FF2FF7319404FF6FF7303EA57
:101CB00002231943818370470A460021018B4FF6A6
:101CC000FB7319401143018370470A460021018BC1
:101CD0004FF6FF3319404FF6FF7303EA022319430F
:101CE000018370470A460021818B4FF6FB73194030
:101CF0001143818370470A460021818B4FF6FF33E1
:101D000019404FF6FF7303EA02231943818370479A
:101D10000A460021018B4FF67F731940114301835E
:101D200070470A460021018BC1F30E014FF6FF7385
:101D300003EA02231943018370470A460021818B7D
:101D40004FF67F7319401143818370470A46002183
:101D5000818BC1F30E014FF6FF7303EA022319438F
:101D6000818370470A460021018C4FF6FD731940AC
:101D70001143018470470A460021018C4FF6F77326
:101D800019401143018470470A460021018C4FF627
:101D9000DF7319404FF6FF7303EA021319430184FE
:101DA00070470A460021018C4FF67F7319404FF6A9
:101DB000FF7303EA02131943018470470A460021A6
:101DC000018C4FF6FF5319404FF6FF7303EA0223CD
:101DD0001943018470470A460021018C4FF2FF73BA
:101DE00019404FF6FF7303EA022319430184704739
:101DF0000A460021018C4DF6FF7319404FF6FF7320
:101E000003EA023319430184704730B500230124EB
:101E10008C40A3B2048C9C430484048C02FA01F528
:101E2000ADB22C43048430BD30B5002304248C4073
:101E3000A3B2048C9C430484048C02FA01F5ADB275
:101E40002C43048430BD70B503460020002418469E
:101E5000183001258D40ACB21D8CA5431D8409B1FD
:101E6000082909D100EB6100056825F070050560BF
:101E70000568154305600EE00D1FC5F34E052844A7
:101E8000056825F4E045056005684FF6FF7606EA2B
:101E900002263543056070BD21B1028842F002027E
:101EA000028004E002884FF6FD731A4002807047FA
:101EB00021B1028842F00402028004E002884FF659
:101EC000FB731A400280704721B1828842F0800281
:101ED000828004E082884FF67F731A4082807047C8
:101EE00002884FF6F7731A40028002880A43028084
:101EF000704782884FF68F731A40828082880A4327
:101F00008280704702894FF6F8731A400281028975
:101F10000A430281704702894FF67F731A4002819B
:101F200002890A4302817047818470478185704726
:101F3000818670470187704781877047A0F84010FD
:101F4000704702884FF6FF431A40028002880A4316
:101F5000028070470146888E70470146088F70479F
:101F60000146888F70470146B1F84000704701462E
:101F7000888C70470146088D704702460020138AFE
:101F80000B400BB1012000E000207047CA430282E1
:101F9000704730B50246002000230024158A05EA68
:101FA0000103958905EA010413B10CB1012000E099
:101FB000002030BDCA43028270470000002044491F
:101FC0000860091D0860091D0860091D0860414876
:101FD0003F4914310860704700213D498279002A49
:101FE0003AD00A46126803689A430B461A600A1DE3
:101FF000126803689A430B1D1A60027911440A683B
:1020000003681A430A60324A0832126803689A4326
:102010002F4B08331A601A1D126803689A432C4B21
:102020000C331A604279102A0ED11A1F1268036805
:102030001A43274B08331A601A1D126803681A43A3
:10204000234B0C331A600DE02149427911440A6890
:1020500003681A430A6005E0027911440A680368BC
:102060009A430A6070470021016001710C2141719F
:102070000021817170471649103109680143144AE3
:1020800010321160704701460020114A1432126864
:102090000A400AB1012000E0002070470C491431C9
:1020A00008607047014600200022094B1B6803EAC4
:1020B0000102074B14331B680B4013B10AB1012016
:1020C00000E00020704702491431086070470000AA
:1020D00000040140FFFF0F0010B501210807FEF7C3
:1020E0001EFE00214FF08050FEF719FE10BD2A4958
:1020F0000862704728490861704701460020274A56
:10210000106820F0E0000843106070472249A031B9
:102110000860704710B502460020204B186820F078
:102120000300104318601E4B1B6843F004031C4C53
:102130002360012901D130BF00E020BF184B1B688C
:1021400023F00403164C236010BD1448006840F0CF
:102150000400124908600846006840F00200086068
:102160000F48006840F004000D49086000BF00BF40
:1021700030BF704701460020084A52680A400AB141
:10218000012000E0002070470449096841EA80010D
:10219000024A11607047000000000E4200700040CB
:1021A00010ED00E010B50120FEF7C6FD0020FEF79F
:1021B000C3FD10BD2A49086070472949091F0860FE
:1021C0007047274984310860704701460020254A3E
:1021D00010884FF67F4210400843224A1080704713
:1021E000014600201F4A10884FF6807210400843B5
:1021F0001C4A1080704708B500220092194A2C3AF8
:102200000092009A02440092009A116008BD08B53D
:1022100001460020009013482C3800900098084494
:1022200000900098008808BD0D489C300068C0B23E
:1022300070470C480830008840F001000949083117
:10224000088070470648A0300068C0B27047054853
:102250000830008840F002000249083108807047C9
:1022600004860D422C6C00400CB5002001900090BB
:102270006C48006840F480306A49086000BF6948D3
:10228000006800F4003000900198401C0190009814
:1022900018B90198B0F5A06FF1D16248006800F458
:1022A000003010B10120009001E000200090009863
:1022B000012843D15C48006840F010005A4908608A
:1022C0000846006820F0030008600846006840F0F7
:1022D0000200086053484068524948600846406818
:1022E00048600846406840F480604860084640689E
:1022F00020F47C1048600846406840F4E8104860CC
:102300000846006840F08070086000BF45480068DB
:1023100000F000700028F9D04248406820F0030027
:10232000404948600846406840F00200486000BFED
:102330003C48406800F00C000828F9D10CBD10B5ED
:10234000FFF792FF10BD10B53648006840F001005D
:1023500034490860084640683449084031494860BB
:1023600008460068324908402E490860084600685F
:1023700020F4802008600846406820F4FE00486091
:102380004FF41F008860FFF7DAFF4FF00060294923
:10239000086010BD10B5002100200022214B5B68B1
:1023A00003F00C0121B1042906D0082928D107E047
:1023B000214B224C236027E01F4B204C236023E05D
:1023C000184B5B6803F47010164B5B6803F48032A3
:1023D000022303EB904022B9194B4343174C23606F
:1023E0000DE0104B5B6803F4003323B1144B4343FF
:1023F000124C236003E0104B4343104C236003E076
:102400000D4B0E4C236000BF00BF064B5B68C3F34F
:1024100003130C4CE15C094B1B68CB40074C236059
:1024200010BD000000100240002002400000FFF834
:10243000FFFFF6FE08ED00E000127A0038000020F1
:1024400000093D003C00002010B56FF00400FEF7CD
:1024500004F92E4800682E49B0FBF1F02D490870B0
:102460000846007800EB4001C1EBC0104FF6FF7149
:1024700001EAC0002849088010BD0146254A1278AB
:102480004A434FF0E0235A6100229A611A461269CA
:1024900042F001021A6100BF4FF0E022106900F023
:1024A00001021AB100F48032002AF5D04FF0E02288
:1024B000126922F001024FF0E0231A6100229A61B2
:1024C00070470146144A12884A434FF0E0235A618C
:1024D00000229A611A46126942F001021A6100BF95
:1024E0004FF0E022106900F001021AB100F48032CE
:1024F000002AF5D04FF0E022126922F001024FF0DD
:10250000E0231A6100229A61704700003800002021
:1025100000127A004C0000204E00002030B5204808
:1025200000684FF47A72B0FBF2F1B1F1807F01D311
:1025300001201DE021F07F40401E4FF0E02250615D
:1025400050170F22002807DA13071D0E154B00F055
:102550000F04241F1D5503E013071C0E124B1C54BF
:1025600000BF00204FF0E0229061072010610020A2
:1025700008B100BFFEE730BD01B50C490098086006
:1025800000BF0A4800680028FBD108BD0748006862
:1025900020B106480068401E0449086070470000EA
:1025A0003800002018ED00E000E400E050000020BA
:1025B00010B586B0044601214804FEF796FB0121C0
:1025C0000420FEF785FB0420ADF8140003208DF8ED
:1025D000160018208DF8170005A9C348FEF7BCF8AF
:1025E0000820ADF8140004208DF8170005A9BE4896
:1025F000FEF7B2F826208DF8000003208DF80100C8
:102600008DF8020001208DF803006846FDF7DBFF1E
:1026100001940020ADF80800ADF80A00ADF80C00F8
:10262000ADF810000C20ADF80E0001A9AF48FEF780
:10263000F6FB012240F22551AC48FEF788FC01214F
:10264000AA48FEF778FC06B010BD70B505460E46E8
:1026500000240CE000BF4021A448FEF747FD0028FD
:10266000F9D0295DA148FEF7D3FC601C84B2B442C6
:10267000F0DB00BF40219D48FEF738FD0028F9D06F
:1026800070BD10B5044621469848FEF7C1FC00BF56
:1026900080219648FEF72AFD0028F9D010BD70B5BC
:1026A00005460E46002400BF0CE0295D8F48FEF76A
:1026B000AFFC00BF40218D48FEF718FD0128F9D17D
:1026C000601C84B2B442F0DB70BD70B504460025D6
:1026D0000CE0615D8548FEF79BFC00BF402183480C
:1026E000FEF704FD0128F9D1681C85B2605D002861
:1026F000EFD170BD70B50646002400257B48FEF77B
:102700008BFC044607E00120FFF7B7FE6D1CB542C5
:1027100001D9002070BD20217448FEF7E7FC002895
:10272000F1D07248FEF778FC714908700124002549
:1027300013E020216D48FEF7D9FC40B100256B481D
:10274000FEF76AFC6A490855601C84B205E04CF249
:102750005030854200D901E06D1CEAE700BF00203F
:10276000634908552046D5E710B56248007800282F
:102770001ED161A15E4802F010F9D0B16148007825
:10278000401C604908700846007803280CDD0020D2
:1027900008700120574908705B49087004205B49A4
:1027A00008705BA002F0AAFC6421514802F0EAF82C
:1027B0007FE05BA14E4802F0F0F8D8B15B480078AA
:1027C000401C5A4908700846007803280DDD002097
:1027D000087001204749087002204B490870042006
:1027E0005349087053A002F089FC6421404802F06C
:1027F000C9F85EE052A13E4802F0CFF8D8B1534884
:102800000078401C514908700846007803280DDD07
:102810000020087001203749087003203A490870E9
:1028200004204B4908704BA002F068FC642130483A
:1028300002F0A8F83DE04AA12D4802F0AEF800B33E
:102840004A480078401C494908700846017848A069
:1028500002F054FC4548007803280DDD0020434970
:102860000870012023490870042027490870434953
:10287000087043A002F042FC64211D4802F082F877
:1028800017E042A11A4802F088F890B100201D49D3
:102890000870264908702D490870344908703EA018
:1028A00002F02CFC0020184908706421104802F046
:1028B00069F810BD10B540F225510C48FEF72CFC0C
:1028C00088B10A48FEF7A8FB0949364A12788854AD
:1028D00034480078401C33490870084600780A28BC
:1028E00001DD0020087010BD0008014000440040D8
:1028F0002005002060000020726573756C743A3109
:102900000000000055000020180000205C0000209E
:10291000BFC9BBD8CAD5C0ACBBF80D0A00000000C7
:10292000726573756C743A32000000005600002026
:102930005D000020D3D0BAA6C0ACBBF80D0A0000E1
:10294000726573756C743A33000000005700002004
:102950005E000020B3F8D3E0C0ACBBF80D0A000065
:10296000726573756C743A340000000058000020E2
:10297000C6E4CBFCC0ACBBF825640A005F000020B5
:10298000C6E4CBFBC0ACBBF80D0A000072657375E2
:102990006C743A3000000000CEDEC0ACBBF80D0A0B
:1029A000000000005900002010B586B00446012147
:1029B0008804FEF79AF901210820FEF789F94FF4FF
:1029C0008060ADF8140003208DF8160018208DF8F3
:1029D000170005A98148FDF7BFFE4FF40060ADF870
:1029E000140004208DF8170005A97C48FDF7B4FEFB
:1029F00026208DF8000001208DF8010003208DF8BD
:102A0000020001208DF803006846FDF7DCFD01940B
:102A10000020ADF80800ADF80A00ADF80C00ADF8E4
:102A200010000C20ADF80E0001A96D48FEF7F7F973
:102A3000012240F225516A48FEF789FA01216848CF
:102A4000FEF779FA06B010BD70B505460E460024B3
:102A50000CE000BF40216248FEF748FB0028F9D097
:102A6000295D5F48FEF7D4FA601C84B2B442F0DB03
:102A700000BF40215A48FEF739FB0028F9D070BD4D
:102A800010B5044621465648FEF7C2FA00BF802121
:102A90005348FEF72BFB0028F9D010BD70B5054652
:102AA0000E46002400BF0CE0295D4D48FEF7B0FA49
:102AB00000BF40214A48FEF719FB0128F9D1601CEC
:102AC00084B2B442F0DB70BD70B5054600240CE062
:102AD000295D4348FEF79CFA00BF40214048FEF7BD
:102AE00005FB0128F9D1601C84B2285D0028EFD1D4
:102AF000601C84B270BD70B50646002400253848BD
:102B0000FEF78AFA044607E00120FFF7B6FC6D1CC9
:102B1000B54201D9002070BD20213148FEF7E6FA08
:102B20000028F1D02E48FEF777FA2E4908700124CC
:102B3000002513E020212A48FEF7D8FA40B10025ED
:102B40002748FEF769FA27490855601C84B205E05A
:102B50004CF25030854200D901E06D1CEAE700BF1D
:102B60000020204908552046D5E710B540F22551F0
:102B70001B48FEF7D1FA00282FD01B48007890B9E7
:102B80001748FEF749FA1749087018480078422894
:102B900005D1012014490870154908701DE0002076
:102BA0001049087019E00E48FEF736FA0D49104A30
:102BB000127888540E480078401C0D490870084669
:102BC00000780A2809D100200870012009490870FE
:102BD0000020054908700349087310BD000C01402E
:102BE00000480040840500205A00002020050020F5
:102BF0005B0000201200002010B501214FF0C050F2
:102C0000FEF773F80120FFF772FAC3480178042039
:102C1000FFF7F1FAC148008881B20820FFF7EBFA0C
:102C2000BF48006801F0A0FF84B221460C20FFF7E6
:102C3000E2FA10BD10B501214FF0C050FEF755F873
:102C40000420FFF7E4FAB44908700820FFF7DFFA20
:102C5000C0B2B24908600C20FFF7D9FAC4B22046CE
:102C600001F07DFFAE49086010BD1FB50121084687
:102C7000FEF73BF84FF08040FEF7F6FE0020ADF87F
:102C80000A00ADF806000920ADF808004720ADF8AD
:102C9000040000208DF80C0001A94FF08040FEF7E1
:102CA00053FB01218807FFF771F9012211469007B4
:102CB000FEF7C1FE1C208DF8000001208DF80300F6
:102CC00002208DF801008DF802006846FDF77BFCBC
:102CD00001218807FEF794FE1FBD7FB505460C460F
:102CE00001210220FEF701F8ADF80850ADF80440CC
:102CF0000020ADF80A00ADF8060001A98948FEF7EA
:102D000023FB012211468748FEF795FE1D208DF812
:102D1000000004208DF801008DF8020001208DF8DC
:102D200003006846FDF74FFC01217E48FEF768FE70
:102D30007FBD10B501218807FFF72BF960B17A48F4
:102D400002684068521C40F1000077490A60486000
:102D500001218807FFF72EF910BD10B500240121CD
:102D60007048FFF716F9002872D001216D48FFF76F
:102D700021F96E480068C0436D49C1F8B4016D483F
:102D80000078012825D164480078012821D16A48BB
:102D90000088401C6849088008460088B0F5FA6F32
:102DA00006DD0020088065480078401C63490870F3
:102DB00062480078032811DD00205E490870022077
:102DC0005F4908705F4908705F4908705F49087083
:102DD00004E0002058490880584908705C48007891
:102DE000401C5B49087008460078554909788842BC
:102DF00003DA0120574908600AE05548007828287E
:102E000003DA00205349086002E0002050490870AE
:102E10004F4800784B490978884203DA01204E492F
:102E200008600AE04A480078282803DA00204A4966
:102E3000086002E000204649087045480078424991
:102E40000978884205DA01204349243108600CE002
:102E500032E03F480078282804DA00203E49243137
:102E6000086002E000203A49087039480078374984
:102E70000978884204DA01203749283108600BE0DC
:102E800033480078282804DA0020334928310860C4
:102E900002E000202E4908701F48007801283AD12E
:102EA00001212E48FDF7EBFC0446012C05D1002042
:102EB0002B4908802B4908702DE029480088401CC8
:102EC0002749088008460088B0F5FA6F11DD2548CB
:102ED000017825A002F012F922480078401C21490F
:102EE000087025480078401C2349087000201C49C0
:102EF00008801C4800780949096888420BDD2021B8
:102F00001648FDF7D8FC0120FFF73EF90120FFF736
:102F1000FDF800F0CAF810BD1A000020640000207F
:102F20006C0000200004004008050020B40122428B
:102F300000002242600000206800002014000020F1
:102F40005C0000205D0000205E0000205F0000208B
:102F5000130000209C01214284812142000801408D
:102F60006A0000201500002074696D65636F756E3E
:102F700074333A25640A00001600002008B50121C8
:102F80000C20FDF7A5FE8020ADF8000010208DF884
:102F9000030003208DF8020069462A48FDF7DCFB98
:102FA0000220ADF8000010208DF8030003208DF8FA
:102FB000020069462448FDF7CFFB4FF48060ADF86E
:102FC000000010208DF8030003208DF802006946F0
:102FD0001D48FDF7C1FB4FF40060ADF80000102064
:102FE0008DF8030003208DF8020069461648FDF7AE
:102FF000B3FB2020ADF8000010208DF80300032063
:103000008DF8020069460F48FDF7A6FB20210D4808
:10301000FDF751FC10208DF8030003208DF802000D
:10302000C020ADF8000069460748FDF795FB012078
:10303000ADF8000004208DF8030069460148FDF753
:103040008BFB08BD00080140000C01401FB50121A9
:103050000520FDF73DFE0120ADF80C0048208DF85D
:103060000F0003A91448FDF777FB00210846FDF780
:1030700089FC0120019000208DF8080008208DF8BF
:10308000090001208DF80A0001A8FEF7A5FF06201F
:103090008DF8000001208DF801008DF802008DF8F8
:1030A00003006846FDF78FFA1FBD10B5FFF7A4FDBA
:1030B000FFF74BF810BD00000008014008B50121E2
:1030C0000820FDF705FE10208DF8030003208DF881
:1030D0000200C020ADF800006946BE48FDF73CFB89
:1030E00008BD0021052006E00A2100BF0A1EA1F14B
:1030F000010399B2FAD1021EA0F1010398B2F3D1F3
:103100007047002107E042F6E06100BF0A1EA1F10E
:10311000010399B2FAD1021EA0F1010398B2F2D1D3
:10312000704710B58021AB48FDF7C3FB4021A9488B
:10313000FDF7BFFBFFF7D5FF8021A648FDF7BBFBDE
:10314000FFF7CFFF4021A348FDF7B5FB10BD10B539
:103150008021A048FDF7AFFB40219E48FDF7A9FB69
:10316000FFF7BFFF80219B48FDF7A3FBFFF7B9FFE7
:1031700010BD38B5044610208DF8030003208DF8EB
:1031800002008020ADF8000069469248FDF7E4FA9D
:10319000012C04D180218F48FDF78BFB06E024B978
:1031A00080218C48FDF787FB00E038BD402189482D
:1031B000FDF77FFBFFF795FF40218648FDF77BFB7E
:1031C000FFF78FFF00BFF0E708B548208DF8030038
:1031D00003208DF802008020ADF8000069467D488C
:1031E000FDF7BAFA40217B48FDF763FBFFF779FF53
:1031F00080217848FDF743FB012802D17649086019
:1032000002E000207449086040217248FDF753FB3A
:10321000FFF767FF10208DF8030069466D48FDF742
:103220009BFA6D48006808BD70B5044600251BE098
:1032300004F0800020B180216648FDF73AFB03E0EE
:1032400080216448FDF737FB6006040E4021614889
:10325000FDF72FFBFFF745FF40215E48FDF72BFBF5
:10326000FFF73FFF681CC5B2082DE1DBFFF7ACFF9D
:1032700070BDF8B5002448208DF803008020ADF81B
:10328000000003208DF8020069465248FDF764FAF9
:1032900080215048FDF70DFB002519E06006040E63
:1032A00040214C48FDF705FBFFF71BFF80214948F3
:1032B000FDF7E5FA012801D1012600E0002634439C
:1032C00040214448FDF7F7FAFFF70BFF681CC5B231
:1032D000082DE3DB10208DF8030069463D48FDF71B
:1032E0003BFA2046F8BD10B50446FFF71AFF46200A
:1032F000FFF79AFF2046FFF797FFFFF728FF10BD63
:1033000010B50120FFF7EFFF10BD10B5FFF709FF63
:103310004720FFF789FF00240EE0FFF7AAFF2F499F
:103320000855032C03D10120FFF723FF02E0002002
:10333000FFF71FFF601CC4B2032CEEDBFFF707FF93
:103340000520FFF7DEFE10BD2DE9F0470024012027
:10335000FFF7C9FF1020FFF7C6FF3220FFF7B1F8D3
:10336000FFF7D3FF1D4800781D4908601B484078CF
:10337000096800EB01201A4908600846006801F05E
:10338000E5FB814601F01AFC07464FF03332154B3E
:1033900001F06DFB054601F024FC0446204601F0D7
:1033A000E3FB85B229461048FDF732FE00BF4021FD
:1033B0000D48FDF79BFE0128F9D0204601F0FEFBE9
:1033C00005462A460B4609A001F098FE2046BDE8B6
:1033D000F0870000000C01400C00002000000020DD
:1033E000080000203333F33F003801400D0A20B9B4
:1033F000E2C7BFB6C8CAC7202566206C780D0A0090
:1034000008B501210820FDF763FC14208DF80300A6
:1034100003208DF802004FF48050ADF8000069469B
:10342000FD48FDF799F94FF40050ADF800006946EA
:10343000F948FDF791F901221103F748FDF73DFA2C
:1034400001225103F448FDF738FA08BD10B50122F6
:103450005103F148FDF731FA01221103EE48FDF75F
:103460002CFA00224FF40051EB48FDF726FA002217
:103470004FF48051E848FDF720FA10BD10B5002246
:103480004FF40051E448FDF718FA01221103E24815
:10349000FDF713FA01225103DF48FDF70EFA10BDC4
:1034A00070B50546002415E08020204100EA0502A1
:1034B0004FF40051D848FDF700FA01221103D64815
:1034C000FDF7FBF900224FF48051D348FDF7F5F9E1
:1034D000601CC4B2082CE7DB01221103CE48FDF7C3
:1034E000ECF900224FF48051CB48FDF7E6F970BDAE
:1034F00010B50446FFF7AAFF7820FFF7D1FF0020A0
:10350000FFF7CEFF2046FFF7CBFFFFF7B7FF10BD59
:1035100010B50446FFF79AFF7820FFF7C1FF40205F
:10352000FFF7BEFF2046FFF7BBFFFFF7A7FF10BD69
:1035300070B505460C4645F0B000FFF7D9FF1021E5
:1035400041EA1410FFF7D4FF04F00F00FFF7D0FF9B
:1035500070BD70B500240EE000212046FFF7E8FFA3
:10356000002504E00020FFF7D3FF681CC5B2802DC2
:10357000F8DB601CC4B2082CEEDB70BD2DE9F04115
:1035800006460F4690463D4625E06A1ED206110EBD
:10359000721E5206100EFFF7CBFF002404E000203D
:1035A000FFF7B6FF601CC4B2082CF8DB6A1ED20617
:1035B000110E721E012303EB4202D0B2FFF7B8FFD7
:1035C000002404E00020FFF7A3FF601CC4B2082C15
:1035D000F8DB681CC5B24545D7DDBDE8F0812DE9B3
:1035E000F04105460E461746721ED206110E6A1E9F
:1035F0005206100EFFF79CFF002409E0A7F12001FE
:10360000864A02EB0111085DFFF782FF601CC4B21D
:10361000082CF3DB721ED206110E6A1E012303EB87
:103620004202D0B2FFF784FF00240BE0A7F1200193
:103630007A4A02EB011204F10801505CFFF768FFBF
:10364000601CC4B2082CF1DBBDE8F0812DE9F0412B
:1036500007460E461546002407E02A5D3019C1B220
:103660003846FFF7BCFF601CC4B2285D0028F4D1C7
:10367000BDE8F08110B50246012000E050430B1E6A
:10368000A1F10101FAD110BD2DE9F04780460E46A7
:1036900017461D46002415E0281B411E0A20FFF78F
:1036A000E9FFB7FBF0F00A21B0FBF1F201FB1200D9
:1036B00000F130093019C1B24A464046FFF78FFF8A
:1036C000601CC4B2AC42E7DBBDE8F0872DE9F047EF
:1036D0008146884615461E46002D06DB2B224146B4
:1036E0004846FFF77CFF2F4605E02D22414648461D
:1036F000FFF775FF6F42002417E0301B411E0A20C0
:10370000FFF7B8FFB7FBF0F00A21B0FBF1F201FBC5
:10371000120000F1300A08EB0400401CC1B252460E
:103720004846FFF75CFF601CC4B2B442E5DBBDE86D
:10373000F0872DE9F04781460E4690461F4600244B
:103740001DE0381B411E1020FFF794FFB8FBF0F07E
:1037500000F00F050A2D08DA05F13000C2B2301969
:10376000C1B24846FFF73BFF07E005F13700C2B2A0
:103770003019C1B24846FFF732FF601CC4B2BC42E8
:10378000DFDBBDE8F0872DE9F04780460E4617469F
:103790001D46002412E0281B411E0220FFF76AFF8D
:1037A000B7FBF0F000F0010000F130093019C1B2B0
:1037B0004A464046FFF713FF601CC4B2AC42EADB46
:1037C000BDE8F0872DE9F04705460E4617469846B6
:1037D0004FF6FF7000EA4709721ED206110E6A1EEC
:1037E0005206100EFFF7A4FE002407E00C4901EB7F
:1037F0000911085DFFF78CFE601CC4B24445F5DB7F
:10380000721ED206110E6A1E012303EB4202D0B2D1
:10381000FFF78EFE00240FE0000C0140C65900089F
:1038200070000020FE4A09F1010102EB0111085D60
:10383000FFF76EFE601CC4B24445F3DBBDE8F087C1
:103840002DE9F04705460E46174698464FF6FF709D
:1038500000EA4709721ED206110E6A1E5206100EA9
:10386000FFF766FE002409E009EB4901ED4A02EB8F
:103870008101085DFFF74CFE601CC4B24445F3DBD8
:10388000721ED206110E6A1E012303EB4202D0B251
:10389000FFF74EFE00240BE009F1010101EB4101AD
:1038A000E04A02EB8101085DFFF732FE601CC4B202
:1038B0004445F1DBBDE8F08770B5002406E0002543
:1038C00000E06D1CB5F57A7FFBD3641CB4F57A7FFC
:1038D000F5D3FFF795FDAE20FFF70AFED520FFF7E1
:1038E00007FE8020FFF704FEA820FFF701FE3F201F
:1038F000FFF7FEFDD320FFF7FBFD0020FFF7F8FDEB
:103900004020FFF7F5FDA120FFF7F2FDC820FFF7EB
:10391000EFFDDA20FFF7ECFD1220FFF7E9FD812033
:10392000FFF7E6FDCF20FFF7E3FDD920FFF7E0FD2D
:10393000F120FFF7DDFDDB20FFF7DAFD3020FFF798
:10394000D7FDA420FFF7D4FDA620FFF7D1FD8D20E1
:10395000FFF7CEFD1420FFF7CBFDAF20FFF7C8FD2A
:10396000FFF7F7FD70BD2DE9F04104460D46012635
:1039700000270AE00A2200232046294600F0CAFF59
:1039800004460D46761C47F100070020D4F10901DA
:10399000A841EFD330463946BDE8F08110B50C237D
:1039A000172202210420FFF74BFF0C2318220421C9
:1039B0000846FFF745FF0C23192208210420FFF7D2
:1039C0003FFF0C231A220A210420FFF739FF0C23A2
:1039D0001B220D210420FFF733FF0C231C220F2193
:1039E0000420FFF72DFF10BD2DE9F047002401262C
:1039F00001250C231D2208210120FFF721FF0C23A4
:103A00001E220A210120FFF71BFFFFF7C7FF5DE120
:103A1000012D3DD1012E3BD100260C231D22082172
:103A20000120FFF70DFF0C231E220A210120FFF7C2
:103A300007FF102201210220FFF7A0FD0C23212205
:103A400002210846FFF7FCFE0C232222042102205B
:103A5000FFF7F6FE0C23232206210220FFF7F0FEDB
:103A60000C23242208210220FFF7EAFE6EA20A217D
:103A70000220FFF7EBFD6D480068C117FFF773FFE9
:103A8000C7B23B4669480C2102680220FFF7FCFDE3
:103A9000022D44D1012E42D100260C231D220821E3
:103AA0000120FFF7CDFE0C231E220A210120FFF783
:103AB000C7FE102201210220FFF760FD0C23252202
:103AC00002210846FFF7BCFE0C2326220421022017
:103AD000FFF7B6FE0C23272206210220FFF7B0FED7
:103AE0000C23282208210220FFF7AAFE4EA20A2159
:103AF0000220FFF7ABFD4E48006801F049F8074689
:103B0000FFF731FF00F0FF094948006801F02CF889
:103B100082464B4652460C210220FFF7B5FD02219A
:103B2000444800F065FB58B954B901261022012120
:103B30000220FFF723FD022D01D1012500E06D1CBD
:103B400010213C4800F054FB68BB44B10024102213
:103B500001210420FFF712FDFFF720FFB6E014BBA0
:103B6000012D00D10124022D00D1022410220121B7
:103B70000420FFF703FD0C23172202210420FFF786
:103B80005FFE0C23182204210846FFF759FE0C2380
:103B90001F2208210420FFF753FE0C2320220E21B0
:103BA0000420FFF74DFE0221224800F021FBA8BBB4
:103BB000A4B310220C210220FFF7E0FC012C11D14C
:103BC0001A480068401C1949086008460068C11777
:103BD000FFF7C9FEC7B23B4614480C210268022019
:103BE000FFF752FD022C2AD14FF07E511048006899
:103BF00000F0E5FE0E4908600846006800F0C8FFC6
:103C00000746FFF7B0FE00F0FF090948006800F022
:103C1000ABFF82464B4652460C210DE00FE0000000
:103C200070000020300100203A00000064000020F5
:103C30006C000020000801400220FFF725FD402114
:103C4000FE4800F0D5FAB8BBB4B310220C21022014
:103C5000FFF794FC012C11D1F9480068401EF84987
:103C6000086008460068C117FFF77DFEC7B23B46F3
:103C7000F3480C2102680220FFF706FD022C1BD13D
:103C80004FF07E51EF48006800F0EBFEED49086010
:103C90000846006800F07CFF0746FFF764FE00F06E
:103CA000FF09E848006800F05FFF82464B46524635
:103CB0000C210220FFF7E8FC4021E04800F098FAD0
:103CC00018B914B9FFF745FC01E000BFA0E600BF3A
:103CD000BDE8F08710B504460C2300220521012021
:103CE000FFF7AEFD0C23012207211046FFF7A8FDC8
:103CF0000C23022209210120FFF7A2FD0C2303223D
:103D00000B210120FFF79CFD0C230422052102203A
:103D1000FFF796FD0C23052207210220FFF790FDF7
:103D20000C23022209211046FFF78AFD0C230322EF
:103D30000B210220FFF784FD0C231D220721032005
:103D4000FFF77EFD0C231E2209210320FFF778FDDB
:103D5000BDA204212046FFF779FC1021B74800F0EE
:103D600047FAF0B9FFF7F5FB012C08D10120B7495C
:103D700008700121B648FDF743FEFFF70FFE022C45
:103D800009D10220B149087001240121B048FDF792
:103D900037FEFFF703FE032C03D1FFF725FEFEF7E6
:103DA0002BFF0221A54800F023FA70B9032C05D19E
:103DB000042211462046FFF7E1FB002404221146AD
:103DC0002046FFF7DBFB601CC4B2204610BD70B577
:103DD00004469E480078012823D19EA20321FFF7C4
:103DE00035FC1023002205210120FFF7EBFC1023F6
:103DF000012207211046FFF7E5FC102302220921CA
:103E00000120FFF7DFFC102303220B210120FFF725
:103E1000D9FC91A20D210120FFF718FC8F480478EE
:103E200025E08A480078022821D18AA203210120B6
:103E3000FFF70CFC1023042205210120FFF7C2FC30
:103E40001023052207210120FFF7BCFC10230222CA
:103E500009210120FFF7B6FC102303220B210120CA
:103E6000FFF7B0FC7CA20D210120FFF7EFFB102132
:103E7000724800F0BDF900287ED17448007802280D
:103E8000FAD1062C55D2DFE804F054031425364746
:103E90007348007830B901207149087004207149D5
:103EA000087005E000206E49087002206D49087016
:103EB00040E06B48007830B901206949087004205F
:103EC0006949087005E000206549087002206649CC
:103ED00008702FE06248007830B90120604908700E
:103EE00004206249087005E000205D490870022046
:103EF0005E4908701EE05A48007830B901205849E0
:103F0000087004205A49087005E0002054490870E0
:103F10000220574908700DE020214848FCF7BCFCFE
:103F2000C0F10100C5B22A4620214448FCF7C5FC77
:103F300000E000BF00BF002C14DD052C12DA484859
:103F4000007828B90C2313220E210320FFF778FCF8
:103F500043480078012805D10C2312220E210320AA
:103F6000FFF76EFC052C14DB20213448FCF794FC91
:103F7000012808D10C2300E00BE012220E210320BF
:103F8000FFF75EFC05E00C2313220E210320FFF750
:103F900057FC002C14DD052C12DA3148007828B9C2
:103FA0000C2313220E210320FFF74AFC2C48007833
:103FB000012805D10C2312220E210320FFF740FC1B
:103FC000052C12DB20211D48FCF766FC012806D1D8
:103FD0000C2312220E210320FFF732FC05E00C23F4
:103FE00013220E210320FFF72BFC0221134800F0BF
:103FF000FFF888B91548007802280DD118480078D4
:1040000050B9102204210320FFF7B8FA052C01D182
:10401000012401E0601CC4B216480078844208D034
:104020000A480078012804D10D2204210320FFF75B
:10403000A5FA4FF4FA70FEF744FA1DE000080140BB
:10404000640000206C0000203E0000001A000020E8
:10405000000400403E3E00003C3C000018000020F0
:10406000600000205C0000205D0000205E00002059
:104070005F00002019000020052C7DD2DFE804F04D
:104080000316354E67000C23142206210320FFF788
:10409000D7FB0C230F2208210320FFF7D1FB0C23B1
:1040A00010220A210320FFF7CBFB7EE00C2306221F
:1040B00004210320FFF7C4FB0C2307220621032061
:1040C000FFF7BEFB0C23082211460320FFF7B8FBC5
:1040D0000C230F220A210320FFF7B2FB0C2310222E
:1040E00019460320FFF7ACFB5FE00C230B220521F0
:1040F0000320FFF7A5FB0C231A4607210320FFF737
:104100009FFB0C230F2209210320FFF799FB0C23AF
:1041100010220B210320FFF793FB46E00C2309221A
:1041200005210320FFF78CFB0C230A220721032023
:10413000FFF786FB0C230F2209210320FFF780FBEA
:104140000C2310220B210320FFF77AFB2DE00C2318
:104150000D2205210320FFF773FB0C230E220721FC
:104160000320FFF76DFB0C230F2209210320FFF72B
:1041700067FB0C23102200E004E00B210320FFF773
:104180005FFB12E00C23152206210320FFF758FBEA
:104190000C23162208210320FFF752FB0C231122C7
:1041A0000A210320FFF74CFB00BF00BF0148047049
:1041B000204670BD1900002001B502E00098401EA5
:1041C000009000980028F9D108BD08B501210C2005
:1041D000FCF77EFD5220ADF8000001208DF80200B2
:1041E00048208DF8030069461048FCF7B5FA08BD71
:1041F00070B504460D4629462046FCF740FB98B9A9
:104200004CF25030FFF7D8FF29462046FCF737FB29
:1042100040B900BF29462046FCF731FB0028F9D001
:10422000002070BD0120FCE70120FAE700080140F2
:104230002DE9F0478046894616461F46DDF820A046
:1042400000210C460D46012249464046FCF735FB4D
:104250000A20FEF712F9002249464046FCF72DFBE2
:104260000DE00120FEF709F9641C45F100054FF44B
:104270007A710020091BA84101D2BDE8F0873946B8
:104280003046FCF7FCFA0028EBD00120FA4901F88F
:104290000A0000BFF1E71CB501210820FCF718FD5A
:1042A00010208DF807002020ADF8040003208DF8C1
:1042B000060001A9F148FCF74FFA28208DF8070005
:1042C0001020ADF8040001A9EC48FCF745FA1020D5
:1042D0008DF807004001ADF8040003208DF80600BA
:1042E00001A9E648FCF738FA28208DF807004FF4BA
:1042F0008070ADF8040001A9E048FCF72DFA102009
:104300008DF80700C002ADF8040003208DF8060008
:1043100001A9DA48FCF720FA28208DF807004FF4AD
:104320008040ADF8040001A9D448FCF715FA10202C
:104330008DF807000002ADF8040003208DF8060098
:1043400001A9CF48FCF708FA28208DF807004FF4A0
:104350000060ADF8040001A9C948FCF7FDF9002090
:104360001023C64A202100901046FFF761FFC24883
:10437000007810B1C3A000F0C1FE01200302BF4AC3
:10438000410200901046FFF753FFBB48407810B140
:10439000C1A000F0B3FE02204303B84A810300909D
:1043A0001046FFF745FFB448807810B1BFA000F079
:1043B000A5FE03204FF40063B14A9114009010460B
:1043C000FFF736FFAC48C07810B1BDA000F096FEF4
:1043D00000222021A948FCF770FA00224FF4007156
:1043E000A648FCF76AFA00224FF40041A348FCF704
:1043F00064FA00224FF48051A048FCF75EFA0F20C7
:10440000FEF73BF81CBD2DE9F041002501222021DB
:104410009A48FCF752FA0F20FEF72FF800222021CD
:104420009648FCF74AFA00BF10219448FCF727FA97
:104430000028F9D00021A74A1160516000BF102167
:104440008E48FCF71CFA0128F9D0A24801684068A0
:10445000A14A11605060642200239F49086849689E
:1044600000F058FA263871F1000114D29A48016818
:1044700042684FF4AD730020A1FB036802FB038286
:1044800001FB002102220346304600F043FA0446B5
:104490006420B4FBF0F528B2BDE8F0812DE9F047C7
:1044A0000025A846012220217448FCF706FA0F20B7
:1044B000FDF7E3FF002220217048FCF7FEF900BF62
:1044C00010216E48FCF7DBF90028F9D00020814A62
:1044D0001060506000BF10216848FCF7D0F9012837
:1044E000F9D07C48016840687B4A116050606422C2
:1044F000002379490868496800F00CFA263871F100
:1045000000011CD27448026843684FF4AD7100206A
:10451000A2FB016903FB019102FB00110222034689
:10452000304600F0F7F904466420B4FBF0F54FF490
:104530007A70B5FBF0F6304600F011FB804640463D
:10454000BDE8F0872DE9F0470025A8464FF47A74BE
:1045500049480078002861D0012220214748FCF713
:10456000ACF90F20FDF789FF002220214348FCF71A
:10457000A4F90021574A1160516007E055480268CC
:104580004068121B70F1000000D305E010213B4889
:10459000FCF775F90028F1D000BF00214D4A1160E9
:1045A000516007E04B4802684068121B70F1000040
:1045B00000D305E010213148FCF761F90128F1D062
:1045C00000BF444801684068434A1160506064225B
:1045D000002341490868496800F09CF9263871F1C8
:1045E00000011BD23C4908684A684FF4AD730021B2
:1045F000A0FB036902FB039200FB012702220B468A
:104600003046394600F086F905466420B5FBF0F8DF
:10461000B8F5FA7F02D80120BDE8F0870025A8464A
:104620001548407800287DD0012251021348FCF73C
:1046300044F90F20FDF721FF00224FF400710F48CD
:10464000FCF73BF90021234A1160516007E0214843
:1046500002684068121B70F1000000D306E04FF4BE
:1046600080710648FCF70BF90028F0D000BF00214C
:10467000184A1160516039E018050020000C014013
:104680000008014048632D73723034E5B7B2E8BFCB
:104690009EE68EA530310A0048632D73723034E5F2
:1046A000B7B2E8BF9EE68EA530320A0048632D738C
:1046B000723034E5B7B2E8BF9EE68EA530330A000B
:1046C00048632D73723034E5B7B2E8BF9EE68EA51D
:1046D00030340A00080500201005002088480268D0
:1046E0004068121B70F1000000D306E04FF48071A7
:1046F0008448FCF7C4F80128F0D000BF8048016866
:104700004068814A11605060642200237E49086835
:10471000496800F0FFF8263871F100011BD27A4891
:10472000016800E017E042684FF4AD730020A1FB80
:10473000036902FB039201FB00210222034630467B
:1047400000F0E8F805466420B5FBF0F8B8F5FA7F0C
:1047500001D8022060E70025A8466C488078002830
:1047600063D00122D1036748FCF7A7F80F20FDF7BB
:1047700084FE00224FF400416248FCF79EF80021BD
:104780005F4A1160516007E05D4802684068121B93
:1047900070F1000000D306E04FF480415948FCF767
:1047A0006EF80028F0D000BF0021554A116051601A
:1047B00007E0534802684068121B70F1000000D304
:1047C00006E04FF480414F48FCF759F80128F0D03B
:1047D00000BF4B48016840684B4A1160506064223A
:1047E000002349490868496800F094F8263871F1B7
:1047F00000011AD2444908684A684FF4AD73002199
:10480000A0FB036902FB039200FB012702220B4677
:104810003046394600F07EF805466420B5FBF0F8D6
:10482000B8F5FA7F01D80320F6E60025A8463748F8
:10483000C078002861D0012211033548FCF73DF80B
:104840000F20FDF71AFE00224FF480513048FCF78C
:1048500034F800212A4A1160516007E028480268B4
:104860004068121B70F1000000D306E04FF40061B5
:104870002748FCF704F80028F0D000BF0021204AA8
:104880001160516007E01E4802684068121B70F119
:10489000000000D306E04FF400611D48FBF7EFFF76
:1048A0000128F0D000BF164801684068164A116020
:1048B00050606422002314490868496800F02AF80F
:1048C000263871F1000118D20F49086849684FF481
:1048D000AD720023A0FB026901FB029100FB0311F2
:1048E0000222304600F016F805466420B5FBF0F8C9
:1048F000B8F5FA7F01D804208EE600208CE600008F
:1049000008050020000C01401005002018050020BB
:10491000000801402DE9F05F0546002092469B46C5
:1049200088460646814640241BE0284641464746C5
:10493000224600F0A2F953465A46C01A914110D3BC
:1049400011461846224600F089F92D1A67EB010836
:104950004F4622460120002100F080F917EB0009A4
:104960004E41201EA4F10104DFDC484631462A46B0
:104970004346BDE8F09FD2B201E000F8012B491E8A
:10498000FBD270470022F6E710B513460A460446EC
:104990001946FFF7F0FF204610BD30B505462A4600
:1049A0000B4612F8010B13F8014B08B1A042F8D0E6
:1049B0001CB1002802D06D1CF1E7284630BDF0B4D0
:1049C00080EA0102D40F4200B2EB410F02D202464C
:1049D000084611464A0042D0C30DDDB2C1F3C752AA
:1049E000AD1A202D35DAC1F3160141F4000204B1ED
:1049F0005242C5F1200602FA06F12A411044B3EBF7
:104A0000D05F23D0C4B1012DA0EBC35009DCF0BCB2
:104A10004FF0004202EAC352DBB200F5000000F0A2
:104A200045B9400000F1807000EBC350A0F18070E8
:104A300040EAD170490009E0490841EAC071A0EBA1
:104A4000C35000F50000400800EBC350F0BC00F07C
:104A500024B96142012202EB4101001BF6E7F0BCE0
:104A6000704781F00041AAE780F00040A7E72DE9F8
:104A7000F04D81EA030404F0004B21F00045144698
:104A80004FF0000A23F0004150EA050220D054EA1A
:104A900001021DD0C5F30A570246C5F31303C1F343
:104AA0001300C1F30A5640F4801543F48013A7EBBA
:104AB0000608101BD64608F2FD3873EB050002D33A
:104AC00008F1010801E092185B41B8F1000F03DA28
:104AD00000200146BDE8F08D00204FF4801106460D
:104AE00084460EE0171B73EB050705D3121B63EB1F
:104AF000050306434CEA010C49084FEA30009218BE
:104B00005B4150EA0107EDD152EA030012D082EA7C
:104B1000040083EA0501084305D0101BAB4106D20F
:104B20000122002306E000224FF0004302E06FF074
:104B3000010253101AEB06004CEB085110EB0A006F
:104B400041EB0B01BDE8F04D00F0DEB8C10F80EA8B
:104B5000E0700844CA079623002100F0A7B8962306
:104B60000022114600F0A2B820F00040C10DC0F3B1
:104B7000160040F400007F2901DA002070479629D2
:104B800003DCC1F19601C8407047963988407047F0
:104B900020F00040C20DC0F3160040F400007F2A50
:104BA00002DA0020014670470021962A03DCC2F198
:104BB0009602D0407047963A00F050B800F000429C
:104BC00030F000400AD0C10D01F56071C0F316004D
:104BD00042EA0151C20840071143704700200146D4
:104BE000704701F0004330B421F0004150EA010267
:104BF00006D00A0DA2F56072C1F31301002A02DC8F
:104C000030BC00207047440F44EAC104C100E018E2
:104C100030BC00EBC25000F040B80000002801DBBF
:104C2000C0F10040002901DBC1F100418142704721
:104C300030B50B46014600202022012409E021FA6C
:104C400002F59D4205D303FA02F5491B04FA02F569
:104C50002844151EA2F10102F1DC30BD202A04DB3C
:104C6000203A00FA02F1002070479140C2F120037F
:104C700020FA03F3194390407047202A04DB203ABE
:104C800021FA02F00021704721FA02F3D040C2F16C
:104C9000200291400843194670470029A8BF704779
:104CA000401C490008BF20F00100704710B4B0FA62
:104CB00080FC00FA0CF050EA010404BF10BC7047FD
:104CC00049B1CCF1200421FA04F411FA0CF118BF17
:104CD000012121430843A3EB0C01CB1D4FEA0061E6
:104CE0004FEA102042BF002010BC704700EBC350B9
:104CF00010440029A4BF10BC7047401C490008BFE5
:104D000020F0010010BC704710B5141E73F10004B0
:104D100008DA401C41F1000192185B411A4301D1AD
:104D200020F0010010BD2DE9F04D92469B4611B1D7
:104D3000B1FA81F202E0B0FA80F220329046FFF739
:104D40008DFF04460F4640EA0A0041EA0B01534634
:104D50005A46084313D0114653EA010019D0C8F14E
:104D600040025046FFF789FF05460E465046594619
:104D70004246FFF773FF084305D0012004E02046B8
:104D80003946BDE8F08D0020054346EAE0762C4325
:104D900037430A986305E40AA0EB08000022FD0AE5
:104DA00044EA47540A3002D500200146E9E70105EC
:104DB00010196941DDE9084500196941BDE8F04D68
:104DC000A2E72DE9FE4F804681EA0300C00F0C46A2
:104DD000009021F0004123F00045B8EB0200A9410A
:104DE00005D24046214690461C460B46024623F01B
:104DF0000040104347D0270DC7F30A00C3F30A5100
:104E00000290401A019040286BDAC3F3130040F47B
:104E1000801B0098924620B10023D2EB030A63EB7B
:104E20000B0B01985946C0F140025046FFF716FFA0
:104E300006460D4650465946019A00F01DF910EB02
:104E400008006141002487EA115284EAE7731A439B
:104E500040D0009A62B3019A012A4FEA075215DC4A
:104E6000001B61EB02014FF0004202EA0752CDE95C
:104E70000042001C41F5801132462B46FFF753FFDC
:104E800003B0BDE8F08F40462146F9E7001B61EB17
:104E90000201001C41F5801300185B412018A2F5A7
:104EA000001747EB030140EAD570B6196D4111E0D8
:104EB0006D084FEA360645EAC0754FEA0752001BF7
:104EC00061EB0201001C41F5801149084FEA3000F6
:104ED0000019514132462B4603B0BDE8F04FFFF7B1
:104EE00013BF0098012240000023D0EB020263EBC5
:104EF000E073009821464FEAE074B8EB000061EBE4
:104F00000401E9E783F000435BE781F0004158E7E3
:104F10002DE9FE4F81EA030404F0004421F0004132
:104F200000944FF0000B23F0004350EA01045ED0E0
:104F300052EA03045BD0C3F30A54C1F30A552C446C
:104F4000A4F2F3340194A0FB0254C1F3130141F421
:104F50008011C3F3130343F4801301FB024400FBED
:104F6000034E840A970A44EA815447EA8357A4FB14
:104F7000076802958D0A05FB07854FEA932C04FB11
:104F80000C542705029D4FEA065847EA1637B5EB41
:104F900008056EEB070C870E920E47EA811742EA6E
:104FA0008312A7FB0201B6EB0B0164EB00042B0D8F
:104FB00043EA0C335E1844EB1C50DA465146E7FBDB
:104FC0000201C5F313044FEA0B3343EA14534FEACB
:104FD0000432019C43EA0603A4F10C040294009CF1
:104FE000CDE900B4FFF79FFE03B0BDE8F08F0020CD
:104FF0000146F9E7C1F30A52C1F3130140F2FF334E
:1050000041F480119A4202DA00200146704740F2D2
:1050100033439A42A2F2334202DC5242FFF72DBEE2
:10502000FFF71CBE30B5041E71F1000404DB4FF025
:105030000044404264EB0101141E73F1000405DBDF
:105040001C464FF00043524263EB0403994208BFF1
:10505000904230BD064C074D06E0E06840F0010389
:1050600094E8070098471034AC42F6D3FBF764F895
:10507000B85F0008D85F0008202A06DBCB17203A6B
:1050800041FA02F043EAE07306E041FA02F3D0404D
:10509000C2F12002914008431946704770B58D183F
:1050A00010F8014B14F0030201D110F8012B231169
:1050B00006D110F8013B03E010F8016B01F8016B19
:1050C000521EF9D1ABB110F8012B04F00C048A1A6E
:1050D0000C2C03D0A2EB84129B1C08E010F8014BAF
:1050E000A2EB0422F8E712F8014B01F8014B5B1E1A
:1050F000F9D5A942D4D3002070BD00000FB4054BF0
:1051000010B503A9044A029800F0DAF810BC5DF863
:1051100014FB0000330500081C05002002E008C84D
:10512000121F08C1002AFAD170477047002001E021
:1051300001C1121F002AFBD1704700002DE9FF5F5B
:1051400082B00021DDE90430020DDDF840B00343F8
:1051500018D044F61050A2F2FF32424315141198B1
:1051600001281FD0A5EB0B00401C5FEA000A4FF09E
:1051700000064E4FDFF83891B046504615D5CAF1BB
:10518000000413E0119801244AA3012801D16FEA19
:105190000B010298119AC0E90031C0E9024206B041
:1051A000BDE8F09FCBF10000DFE704460021404A54
:1051B000491842EB0450CDE9001012E0E00707D097
:1051C00032463B4640464946FFF7A2FE80468946A6
:1051D00032463B4610461946FFF79AFE06460F46F2
:1051E0006410002CEAD1DDE90401DDE90023BAF105
:1051F000000F06DAFFF78CFE42464B46FFF788FEAB
:1052000005E0FFF734FC42464B46FFF730FC04460E
:105210000E460022284BFFF705FF03D84FF0FF3062
:10522000014607E00022254B20463146FFF7C9FD25
:10523000FFF7E0FE102409E0002C0ADB0A2200231D
:10524000FFF768FB039B30321A55641E50EA0102D7
:10525000F2D1641C039AC4F111031444119A012A77
:1052600003D0012208430DD10AE0084304D00020F6
:105270004FF0110B119072E7A3EB0B056D1E0DE0C3
:105280005B4504DD4FF0000205F1010504E003DA9F
:105290004FF00002A5F10105002AECD00298119907
:1052A000C0E90231C0E9004579E700000000144080
:1052B0000000F03F300000000000F0430000E03F3D
:1052C0002DE9FF4F95B09A46884606460025EEE147
:1052D000252877D100242746F94A0121039400E0CC
:1052E000044316F8013F203B01FA03F01042F7D1C6
:1052F00030782A2811D06FF02F033078A0F13002D7
:10530000092A16D8039A44F0020402EB820203EB46
:1053100042021044761C0390EFE758F8042B0392E6
:10532000002A03DA504244F40054039044F002048B
:10533000761C30782E2816D116F8010F44F004049C
:105340002A280DD06FF02F023078A0F13003092BFE
:1053500009D807EB870302EB4303C718761CF3E772
:1053600058F8047B761C30786C280FD006DC4C286B
:1053700017D068280DD06A2814D104E0742810D002
:105380007A280FD10DE044F400140AE044F48014AC
:1053900001E044F440147278824202D104F5801492
:1053A000761C761C307866280BD013DC582877D012
:1053B00009DC002875D04528F6D04628F4D04728C7
:1053C0001AD193E118E0632835D0642879D0652894
:1053D00012D18BE1702873D008DC6728F1D06928DE
:1053E0006FD06E280DD06F2806D1ACE073282CD07A
:1053F000752874D0782853D05246179990476D1C61
:1054000054E1C4F30250022809D003280DD0D8F883
:10541000001004280DD00D6008F1040846E1D8F80A
:105420000010EA17C1E90052F6E7D8F800100D8025
:10543000F2E70D70F0E718F8041B8DF8001000205B
:105440008DF80100EB46012003E058F804BB4FF053
:10545000FF3061074FF0000102D40DE009F10101B6
:105460008946B9420FDA8145F8DB1BF8091000299B
:10547000F4D108E009F1010189468142FADB1BF809
:1054800009100029F6D103985346A0EB09072146DD
:105490003846179A00F080FA284400EB090507E027
:1054A00044E008E10DE01BF8010B524617999047C4
:1054B000B9F10109F7D2534621463846179AF2E06E
:1054C00039E00A21C4F302524FF0000B0091022A86
:1054D00006D058F8040BC117032A09D00AE023E0CC
:1054E00008F1070020F00702F2E80201904605E00B
:1054F00000B2C117042A01D140B2C117002906DA4F
:105500000A460021404261EB02012D2202E0220501
:1055100004D52B228DF80420012203E0E20701D0FC
:105520002022F7E7914657E00A2100E010214FF0D2
:10553000000B00910BE010214FF0000B44F004042D
:105540000827009103E008204FF0000B0090C4F3FF
:105550000252022A05D058F8040B0021032A08D071
:1055600008E008F1070020F00702F2E80201904687
:1055700003E080B2042A00D1C0B24FF00009220734
:105580002AD53278702A07D0DDF800C08CF0100CD4
:105590005CEA0B0C05D00EE040228DF804200122BD
:1055A00008E050EA010306D030238DF804308DF86E
:1055B000052002229146009B83F0080353EA0B0367
:1055C0000AD150EA010201D1620705D530228DF8D7
:1055D00004204FF001097F1E3278582A04D039A2E6
:1055E0000C920CAA02920BE03BA2F9E75B46009AF0
:1055F000FFF790F90C9B9B5C029A521E029213706B
:1056000050EA0102F2D1029804A9081A00F1200B15
:10561000600702D524F4803400E001275F4502DDF5
:10562000A7EB0B0000E0002000EB0B0100900398BB
:105630004944401A0390E00306D453462146179A82
:10564000039800F0A9F90544002706E001A8524696
:10565000C05D179990476D1C7F1C4F45F6DBE0033A
:105660000CD553462146179A039800F095F9054446
:1056700004E030205246179990476D1C0099481E4F
:1056800000900029F5DC08E0029802995246007863
:10569000491C0291179990476D1CBBF10001ABF1B9
:1056A000010BF1DC5BE100F065F90544761C307814
:1056B00000287FF40DAE19B02846BDE8F08F000039
:1056C00009280100303132333435363738396162D8
:1056D000636465660000000030313233343536379C
:1056E000383941424344454600000000600700D479
:1056F000062708F1070020F00700F0E802238046A3
:1057000003F0004C5FEA0C0001D097A009E02005EF
:1057100001D596A005E0E00701D095A001E0AFF229
:105720004C001390307823F0004365280CD006DC41
:10573000452809D046281DD047287FD13BE0662860
:1057400018D067287AD136E00021112F01DB112013
:1057500000E0781CCDE9000104A90CA8FFF7EEFCDD
:10576000DDE90D010C9A4FF0000B07F101091092D1
:1057700000914EE04FF000400097CDE9011004A9E0
:105780000CA8FFF7DBFCDDE90D020C9B0F994FF035
:10579000000B91461093009211B9791C00EB01099E
:1057A000B7EB090003D4C0F1FF3B07F10109A9EBF6
:1057B0000700019042E0012F00DA01270021112F9C
:1057C00001DD112000E03846CDE9000104A90CA854
:1057D000FFF7B4FCDDE90D010C9A00914FF0000BCE
:1057E000B946109221070FD4009A4A4503DA914630
:1057F00001E0A9F10109B9F1010F05DD109AA9F144
:105800000101515C3029F4D0B84202DA10F1040FE2
:1058100003DA0121CDE9011010E0002803DC834404
:10582000A9EB000102E0411C494500DD8946A0EBDF
:105830000B00401C01904FF000400290200705D45F
:105840000198484502DB4FF0FF30019000208DF8B1
:105850004B0002980DF14B07B0F1004F25D002200C
:105860000C902B200D90029800280CDA40420290F8
:105870002D200D9007E00A210298FFF7D9F9303169
:10588000029007F8011D0C99481E0C900029F2DCCB
:1058900002980028EFD1791E0D980870307800F03A
:1058A000200040F0450007F8020D11A8C01BC01DE4
:1058B00002901398007800B1012000EB09010198D3
:1058C00001EBE071029801440398401A401E0390D6
:1058D000E00306D453462146179A039800F05CF87B
:1058E00005441398007818B15246179990476D1CDB
:1058F000E00323D553462146179A039800F04CF84D
:1059000005441BE0BBF1000F07DB0098584504DDA0
:105910001098179910F80B0001E0179930205246A3
:10592000904701980BF1010B401E05F10105019014
:1059300004D12E205246179990476D1CB9F10001F1
:10594000A9F10109DEDC05E017F8010B52461799B1
:1059500090476D1C0299481E02900029F4DC5346C2
:105960002146179A03989EE62D0000002B000000A8
:10597000200000002DE9F041044600251E46174690
:10598000880404D405E039462020B0476D1C641E0D
:10599000F9D52846BDE8F0812DE9F04104460025FF
:1059A0001E469046C80301D5302700E02027880412
:1059B00004D505E041463846B0476D1C641EF9D554
:1059C0002846BDE8F0810000000000000000000053
:1059D000000000000000000000F8000000000000CF
:1059E00000333000000000100C06100C0600000010
:1059F00000000000000040C07840C0784000043F34
:105A000004043F040400007088FC08300000001803
:105A100020FF211E0000F008F000E0180000002127
:105A20001C031E211E0000F00888700000001E21CB
:105A300023241927211010160E000000000000007A
:105A4000000000000000000000E018040200000058
:105A500000071820400000020418E0000000004089
:105A6000201807000000404080F080404000020203
:105A7000010F01020200000000F00000000001011F
:105A8000011F01010100000000000000000080B0C3
:105A90007000000000000000000000000000000195
:105AA00001010101010100000000000000000030C0
:105AB000300000000000000000008060180400605A
:105AC00018060100000000E010080810E000000FB8
:105AD000102020100F00001010F80000000000201F
